:020000040800F2
:1000000000E800203103000831920008A1650008D3
:100010002D920008471A000845EE00080000000075
:100020000000000000000000000000007102000855
:100030006D24000800000000CD02000859A100084E
:100040004B0300084B0300084B0300084B03000858
:100050004B0300084B0300084B0300084B03000848
:100060004B0300086F240008792400084B030008A4
:10007000A12000084B0300084B0300084B030008B5
:100080004B0300084B0300084B0300085D1A0008EF
:100090004D1A00084B0300084B0300088324000896
:1000A0004B0300084B0300084B0300084B030008F8
:1000B00055A200084B0300084B0300084B0300083F
:1000C0004B0300084B0300084B0300084B030008D8
:1000D0004B03000815D400084B0300084B0300082D
:1000E0004B0300084B0300084B0300084B030008B8
:1000F0004B0300084B0300084B0300084B030008A8
:100100004B0300084B0300084B0300084B03000897
:100110004B0300084B0300084B0300084B03000887
:10012000B1200008C1200008D1200008E12000080B
:100130004B0300084B0300084B0300087D1A00081E
:100140004B0300086D1A00084B030008D9940008FF
:100150004B030008F12000080121000839D50008F0
:100160004B0300084B0300084B0300084B03000837
:100170004B0300084B0300084B030008000000007D
:100180004B0300084B03000800F002F800F060F891
:100190000AA090E8000C82448344AAF10107DA45E2
:1001A00001D100F055F8AFF2090EBAE80F0013F0D4
:1001B000010F18BFFB1A43F001031847AC8301007D
:1001C000CC8301000A444FF0000C10F8013B13F0FF
:1001D000070408BF10F8014B1D1108BF10F8015BA0
:1001E000641E05D010F8016B641E01F8016BF9D193
:1001F00013F0080F1EBF10F8014BAD1C0C1B09D1EA
:100200006D1E58BF01F801CBFAD505E014F8016B5B
:1002100001F8016B6D1EF9D59142D6D370470000ED
:100220000023002400250026103A28BF78C1FBD8FF
:10023000520728BF30C148BF0B6070471FB517F089
:10024000EFF89DE8030000F099FF1FBD10B510BD49
:1002500001F018F81146FFF7F1FF12F059FD01F017
:1002600036F803B4FFF7F2FF03BC01F06DF80000AD
:100270002C4B19680868B0E8F04F80F30988BFF389
:100280006F8F4FF0000080F311887047000000006E
:1002900008480068006880F308884FF0000080F389
:1002A000148862B661B6BFF34F8FBFF36F8F00DF64
:1002B00000BF00BF08ED00E0DFF80C00016841F46A
:1002C00070010160704700BF88ED00E0EFF3098026
:1002D000BFF36F8F134B1A681EF0100F08BF20ED8D
:1002E000108A20E9F04F106009B44FF0500080F3FD
:1002F0001188BFF34F8FBFF36F8F15F06DF94FF07B
:10030000000080F3118809BC19680868B0E8F04F54
:100310001EF0100F08BFB0EC108A80F30988BFF3FD
:100320006F8F704748000020EFF305807047000092
:100330000948804709480047FEE7FEE7FEE7FEE779
:10034000FEE7FEE7FEE7FEE7FEE7FEE704480549B5
:10035000054A064B7047000041A2000889010008C9
:1003600000A8002000E8002000C8002000C80020ED
:100370009FED1A1AF5EE000A40EE010ABDEEE00A02
:10038000F5EEC00A10EE100AF1EE10FA38BF401E6A
:1003900000EE100A1349F7EE001AB8EEC00A30EE6C
:1003A000C00ADFED0F0A20EE200AFCEEC00A10EEB4
:1003B000900AC0F3080000EE900A01EB8000F8EE0E
:1003C000600A90ED011A70EE600A90ED000A71EE7D
:1003D000E01A21EE800A00EE810A704783F9223E7E
:1003E000000000449C7B0108B5EEC00AF1EE10FA53
:1003F00007D2DFED1E0AB4EEE00AF1EE10FAA8BF54
:100400007047DFED1B0AB5EEC00A60EE200ABDEEB4
:10041000E01A11EE100AF1EE10FA38BF401E00EE9D
:10042000100A1549F7EE001AB8EEC00A30EEC00AFD
:10043000DFED100A60EE200ABCEEE00A10EE100AB2
:10044000C0F3080000EE100A01EB8000B8EE400A8D
:1004500090ED011A70EEC00A90ED000A71EEE01AFC
:1004600021EE800A00EE810A70470000CD024CB4F4
:1004700083F9223E000000449C7B010870B405888B
:100480000E884468D1F804C05368B54208D140884A
:100490004988884201BF11888D425188884203D023
:1004A00070BC6FF00200704705FB00F1880827D090
:1004B00094ED001ADCED000A94ED010ADCED011A5E
:1004C00031EE201AD4ED020A70EE211A9CED020AD8
:1004D00083ED001AC3ED011A94ED031ADCED031A43
:1004E00030EE800A401E71EE210A83ED020A04F10B
:1004F0001004C3ED030A03F110030CF1100CD7D163
:1005000011F0030030D0B0F1004F30D200282BDDC5
:10051000211F1B1FACF1040210F0010F0AD091ED56
:10052000010AD2ED010A091D121D30EE200A83EDE9
:10053000010A1B1D400817D091ED010AD2ED010AF6
:10054000401E30EE200A83ED010A91ED020AD2ED41
:10055000020A01F1080102F1080230EE200A83EDDF
:10056000020A03F10803E7D170BC00207047B4EC25
:10057000010A401EFCEC010A30EE200AA3EC010A3D
:10058000F5D1F1E701804280436070472DE9F34FD8
:1005900084B0049840680090486801900498B0F8CE
:1005A00000E04588DFEDFE0A00200290B0EE600A10
:1005B000AE4506D108884988884204BF7146864501
:1005C00004D06FF0020006B0BDE8F08F01985FEA3A
:1005D000010C18BFB7EE001A3DD000BFBEEB0C01F6
:1005E00017D0B1F1004F80F01F82002911DD021FEA
:1005F00011F0010F1CBFC2ED010A121D4B1006D0F5
:10060000C2ED010AC2ED020A08325B1EF8D100EB0E
:100610008100BCF10102A0EC011A19D0B2F1004F27
:1006200080F00882002A13DD031F12F0010F1CBFA7
:10063000C3ED010A1B1D511008D000BFC3ED010A14
:10064000C3ED020A491E03F10803F7D100EB820053
:10065000BCF1010CC2D14FF000080395002D14BF6E
:10066000B0EE602A002000F0BF8100BF009908FBB7
:1006700005F001EB800B0199DBED002A01EB800016
:100680000346F0EE421AC64552D9AEEB0802ABEB78
:10069000850112F0010F17D001EB850191ED000AE1
:1006A000B5EEC00AF1EE10FA07DDB4EEE10AF1EEA4
:1006B00010FA09DDF0EE401A06E0B1EE400AF4EE61
:1006C000C01AF1EE10FAF5D3521031D001EB850CBF
:1006D0009CED000AB5EEC00AF1EE10FA05DDB4EEAD
:1006E000E10AF1EE10FA09DD06E0B1EE400AF4EE9F
:1006F000C01AF1EE10FA01D2F0EE401A01EBC5017A
:1007000091ED000AB5EEC00AF1EE10FA05DDB4EE87
:10071000E10AF1EE10FA09DD06E0B1EE400AF4EE6E
:10072000C01AF1EE10FA01D2F0EE401A521ECDD1ED
:10073000F5EEC01AF1EE10FA00F07381F5EEC02A62
:100740000126F1EE10FA0099D4BFB1EE620AB0EEC4
:10075000620AB4EE610AF1EE10FA1CBFAEEB0802B9
:10076000B2F1010C47D005FB08F201EB820292EDD9
:10077000001A00BFB0EE410A05FB06F4B5EEC00A50
:1007800000EB8404F1EE10FACCBFF0EE400AF1EE7B
:10079000400AF4EE610AF1EE10FA28D1B5EB080C2C
:1007A00011D0BCF1004F7DD2BCF1000F0BDD00BFBA
:1007B00092ED000AD1ED000ABCF1010CE2EC010A55
:1007C000A1EC010AF4D129000ED0B1F1004F6AD298
:1007D000002909DD94ED000AD0ED000A491EE4EC81
:1007E000010AA0EC010AF5D1012002900BE0761C71
:1007F000BCF1010CBED10298012804D0F5EEC02A4C
:10080000F1EE10FA7ED09BED000AB5EB08009A4697
:100810005946064622D0B0F1004F74D200281DDDA3
:10082000091F10F0010F06D0F0EE400A80EEA01A6A
:1008300081ED011A091D401010D000BFD1ED010A51
:10084000401E80EE801A81ED011A91ED021AC1EE70
:10085000000AC1ED020A01F10801EFD1280026D0FB
:10086000B0F1004F7ED2002821DDAAF1040110F082
:10087000010F06D0D1ED010A80EE801A81ED011A38
:10088000091D401013D000BFD1ED010A401E80EEBB
:10089000801A81ED011AD1ED020A80EE801A81EDF5
:1008A000021A01E0CBE0D6E001F10801ECD1DDE96C
:1008B00000124FF000095FEA0E0773D0C14504BF74
:1008C00001EB860102EB850274D091ED000ADC4653
:1008D0005046331E35D01C46B6F1004F7ED2002C58
:1008E0002FDD0B1FABF1040C16F0010F0FD0F0EE53
:1008F000400ADCED011AB0EE601A00EEE11A83ED59
:10090000011A01E08DE0B1E01B1D0CF1040C741024
:1009100015D000BFD3ED010A9CED011A40EE410A4B
:10092000C3ED010AD3ED020A9CED021A0CF1080C8A
:1009300040EE410AC3ED020A0833641EEAD101EB1E
:1009400086012B0036D0B3F1004F72D2002B31DD7F
:10095000A2F1040CAAF1040013F0010F0CD0DCED9D
:10096000010A00E08BE090ED011A001D40EE410A03
:10097000CCED010A0CF1040C5C1019D0DCED010A7D
:1009800090ED011A40EE410ACCED010ADCED020ABD
:1009900090ED021A083040EE410ACCED020A03E065
:1009A000000000000DE005E0641E0CF1080CE5D12C
:1009B00002EB830201EB88017F1E09F101097FF43C
:1009C0007DAF009808F10108001D00900398401EBB
:1009D00003907FF44BAE0299012900E058E004BF78
:1009E00006B0BDE8F08F00BFB5EEC00AF1EE10FA18
:1009F0007FF4E9AD04990EFB05F3002B4A684FF034
:100A000000010BD902EB810C9CED000AB5EEC00A87
:100A1000F1EE10FA02D1491C8B42F3D88B427FF4DD
:100A2000D2AD6FF00400CEE5E0EC010A491EFBD127
:100A3000EFE538E0E0EC010A521EFBD108E692ED4A
:100A4000000AD1ED000ABCF1010CE2EC010AA1ECB4
:100A5000010AF4D1B7E694ED000AD0ED000A491E70
:100A6000E4EC010AA0EC010AF5D1BDE6D1ED000AE3
:100A7000401E80EE801AA1EC011AF7D1EEE6D3ED0C
:100A8000000A401E80EE801AA3EC011AF7D10EE78F
:100A9000BCEC011AD1ED000A5B1E40EE410AE1EC0C
:100AA000010AF5D14DE7B0EC011AD2ED000A5B1E48
:100AB00040EE410AE2EC010AF5D17BE72DE9F04F67
:100AC00082B0466853680193058847884B880020A8
:100AD00000900888874201BFB2F800C0654552887F
:100AE00093421EBF6FF0020002B0BDE8F08F9FED91
:100AF000412A4FEA970EC7F3400B00BFDDE9000221
:100B000002EB800A4A6898464FF00009B0EE420AAC
:100B1000B4465FEA0E0025D092ED001ADCED001A13
:100B200002EB8302DCED010A01EE810A92ED001A6C
:100B300002EB8302401ED2ED001A02EB830200EEAC
:100B4000810A9CED021ADCED030A00040CF1100C82
:100B5000000C01EE210A92ED001A02EB830200EE76
:100B6000810AD9D117F0030026D0ACF10404A2EB1E
:100B7000830210F0010F08D002EB8302D4ED010ACA
:100B800092ED001A241D00EE810A5FEA0B0013D0DB
:100B900002EB830CD4ED010A9CED001A02EBC302B8
:100BA000401E00EE810AD4ED020A92ED001A04F113
:100BB000080400EE810AEBD109F10100AAEC010A58
:100BC0001FFA80F9486800EB8902A8F101001FFABA
:100BD00080F8B8F1000F99D1009806EB8706184409
:100BE00080B20090681E05042D0C87D102B0002051
:100BF000BDE8F08F0000000070B405880E884468DE
:100C0000D1F804C05368B54208D140884988884269
:100C100001BF11888D425188884203D070BC6FF0AB
:100C20000200704705FB00F1880827D094ED001AF8
:100C3000DCED000A94ED010ADCED011A31EE601AD8
:100C4000D4ED020A70EE611A9CED020A83ED001ADF
:100C5000C3ED011A94ED031ADCED031A30EEC00A5D
:100C6000401E71EE610A83ED020A04F11004C3ED27
:100C7000030A03F110030CF1100CD7D111F003009B
:100C800030D0B0F1004F30D200282BDD211F1B1FC8
:100C9000ACF1040210F0010F0AD091ED010AD2ED7F
:100CA000010A091D121D30EE600A83ED010A1B1DA9
:100CB000400817D091ED010AD2ED010A401E30EE36
:100CC000600A83ED010A91ED020AD2ED020A01F1F8
:100CD000080102F1080230EE600A83ED020A03F116
:100CE0000803E7D170BC00207047B4EC010A401E35
:100CF000FCEC010A30EE600AA3EC010AF5D1F1E741
:100D00002DE9F04F02884768B0F802804888D1F892
:100D1000049082B04FF0000A1646824207BF09884D
:100D200088456FF0020002B018BFBDE8F08F4FEAAF
:100D3000980B02EB42000190C8F34000CDF8000090
:100D400009EB8A01BBF1000F33D0019801EB820C53
:100D500001EB80043B46E64601EBC2054FEA0B007F
:100D600093ED000A401E81ED000A93ED010A01EBAC
:100D700002118CED000A93ED020A0CEB021C85EDCA
:100D8000000A93ED030A05EB021584ED000A04EB5B
:100D9000021403F11003E3D10EEB820000EB82009A
:100DA00000EB8201ABF10100504307EB0B1701EBA5
:100DB000001118F0030C21D03B1FA1EB82011CF0A5
:100DC000010F06D093ED010A01EB82011B1D81ED9D
:100DD000000A009880B100BF93ED010A01EB820484
:100DE00001EBC20184ED000A93ED020A401E81ED81
:100DF000000A03F10803EFD107EB8C070AF10100A9
:100E00001FFA80FA701E0604360C99D102B0002039
:100E1000BDE8F08F70B5064600F094F9056806F15C
:100E20000B0020F00704B4429CBF002070BD2B468D
:100E30006A68BAB11068A04210D304F10801884270
:100E40003CBF5068586007D3516810194160116861
:100E5000091B016058601460101D70BD1346526874
:100E6000002AE7D12146284600F074F90028DED197
:100E700070BD70B50446051F00F064F90068002CD1
:100E800014BF446870BD002C18BFAC423CBF204664
:100E90006468F8D301680A18AA4218BF456003D1F4
:100EA0002A6805461144016028684119A1421CBF07
:100EB0006C6070BD6168696021680844286070BD1D
:100EC00053EA020C00F069802DE9F04B4FF0000668
:100ED000002B1FBFB3FA83F503FA05F424FA05F6D5
:100EE0005E4012BF1643B2FA82F502FA05F4C5F16C
:100EF00020051EBF22FA05FC44EA0C04203556EA00
:100F0000044C4FEA144418BF641C4FF000084FF023
:100F10000009904271EB030C39D3002919BFB1FAD3
:100F200081F701FA07F6B0FA80F700FA07F6C7F181
:100F300020071EBF20FA07FC46EA0C062037B6FB46
:100F4000F4FCA7EB0507103F07F01F0BCBF12006C1
:100F50000CFA0BFB2CFA06F644BFB3460026202FF2
:100F6000A4BF5E464FF0000B5BEA060C08BF4FF0D3
:100F7000010B19EB0B09ABFB027C48EB0608C01B0D
:100F800006FB02CC0BFB03CC71EB0C01C1E70B465B
:100F9000024641464846BDE8F08B13B54FF00000CD
:100FA0004FF00001AFF30080BDE81C407047032AFA
:100FB00040F2308010F0030C00F0158011F8013B76
:100FC000BCF1020F624498BF11F801CB00F8013B5D
:100FD00038BF11F8013BA2F1040298BF00F801CB21
:100FE00038BF00F8013B11F0030300F02580083AF8
:100FF000C0F0088051F8043B083A51F804CBA0E84F
:101000000810F5E7121D5CBF51F8043B40F8043BA3
:10101000AFF30080D20724BF11F8013B11F801CBD8
:1010200048BF11F8012B24BF00F8013B00F801CBA9
:1010300048BF00F8012B704710B5203AC0F00B8074
:10104000B1E81850203AA0E81850B1E81850A0E8CC
:101050001850BFF4F5AF5FEA027C24BFB1E8185026
:10106000A0E8185044BF18C918C0BDE810405FEA96
:10107000827C24BF51F8043B40F8043B08BF704712
:10108000D20728BF31F8023B48BF11F8012B28BF17
:1010900020F8023B48BF00F8012B704702F0FF0325
:1010A00043EA032242EA024200F002B84FF0000293
:1010B0000429C0F0128010F0030C00F01B80CCF16A
:1010C000040CBCF1020F18BF00F8012BA8BF20F8D8
:1010D000022BA1EB0C0100F00DB85FEAC17C24BF2C
:1010E00000F8012B00F8012B48BF00F8012B7047D6
:1010F0004FF0000200B5134694469646203922BFB1
:10110000A0E80C50A0E80C50B1F12001BFF4F7AFFB
:10111000090728BFA0E80C5048BF0CC05DF804EBDD
:10112000890028BF40F8042B08BF704748BF20F84B
:10113000022B11F0804F18BF00F8012B7047704749
:101140007047704700487047A8A700207047704755
:101150007047704738B504460A4600206946AFF329
:101160000080002808BF38BD02460099204600F0E4
:101170004FF8012038BD012000F07CB8F8B5AFF37E
:101180000080054600200C46102000BF0646A81926
:10119000A0420DD9324669460020AFF30080070017
:1011A00008BF00F067F80098A04218BF0546C419B0
:1011B000FFF7C8FF05600746F01D20F0070046193D
:1011C000284600F00AF8B44208BFF8BDA21B314619
:1011D0003868BDE8F84000F01BB800210160C0E9A4
:1011E000011070471020704710B500F00DF800682E
:1011F00010BD10B5044600F007F8046010BD0000F3
:1012000000487047A0A7002000487047A0A7002012
:10121000034640688C46002818BF88423CBF0346FE
:101220004068F8D318681844884207D00CF10300CE
:1012300020F00700001D411A521A0146081D0A60DD
:10124000FFF717BE1FB584B000200A9C06AB04AAA6
:1012500002A90094AFF3008018B1DDE9020108B0E3
:1012600010BD0348204000F040F800200146F6E79A
:101270000000207C10B500F03FF8BDE8104000F001
:101280002FB870477546FFF7BBFFAE4605006946AD
:10129000534620F00700854618B020B5FFF756F8F2
:1012A000BDE820404FF000064FF000074FF0000867
:1012B0004FF0000B21F00701AC46ACE8C009ACE8E8
:1012C000C009ACE8C009ACE8C0098D46704710B54C
:1012D0000446AFF300802046BDE81040FEF7C1BFD2
:1012E000002801D000F030B8704710B500F04CF87D
:1012F000BDE81040FFF7F4BF10B5012805D000216C
:1013000003A000F027F8012010BD09A1F8E70000B4
:1013100053494752544D454D3A204F7574206F66DE
:101320002068656170206D656D6F72790000000046
:101330003A2048656170206D656D6F727920636F2A
:10134000727275707465640001491820ABBEFEE7C7
:101350002600020070B505460C460A2000E06D1C10
:1013600000F068F835B128780028F8D102E0641C54
:1013700000F060F814B120780028F8D1BDE8704082
:101380000A2000F057B8000010B5022803D0410130
:1013900003D50DA112E0002010BD010101D50FA160
:1013A0000CE0C10001D511A108E0810001D512A116
:1013B00004E0400001D513A100E0002115A0FFF7D3
:1013C000C9FF012010BD0000496E76616C69642080
:1013D0004F7065726174696F6E00000044697669D0
:1013E0006465204279205A65726F00004F766572FD
:1013F000666C6F7700000000556E646572666C6FF6
:1014000077000000496E65786163742052657375DA
:101410006C7400005349474650453A204172697444
:10142000686D6574696320657863657074696F6E53
:101430003A20000008B569468DF800000320ABBED5
:1014400008BD2DE9F04F09AC94E8F010DDE90E89F4
:101450004FF0000A05E011F80AB000F80AB00AF1EE
:10146000010ABAF1030F04DA11F80AB0BBF1000F58
:10147000F1D190F803B062F3020B80F803B090F85A
:1014800003B02BF0380B0BF1200B80F803B0B0F851
:1014900003B063F3891BA0F803B090F804B064F3C1
:1014A000850B80F804B0B0F804B066F38E1BA0F88A
:1014B00004B0B0F805B067F3CF1BA0F805B0B0F8E2
:1014C00007B065F3090BA0F807B0B0F808B06CF3EB
:1014D0008C0BA0F808B0B0F809B068F34F1BA0F867
:1014E00009B0B0F80BB06FF3090BA0F80BB0B0F86F
:1014F0000CB069F38C0BA0F80CB0B0F80DE0DDF87F
:1015000040B06BF34F1EA0F80DE0BDE8F08F000077
:1015100010B501221021024802F0F2FA10BD0000BD
:101520000000024010B500221021024802F0E8FA43
:1015300010BD00000000024010B501221146024813
:1015400002F0DEFA10BD00000004024010B50022D7
:101550000121024802F0D4FA10BD0000000402404C
:1015600010B50446FFF7DEFF922000F0A3F9062233
:101570009549122000F07EF9FFF7CAFF92484078A3
:10158000000200B290490978084390490880084653
:10159000B0F9000000EE100AB8EEC00A8C48D0ED99
:1015A000000A20EE200AD4ED080A20EE200A84ED7D
:1015B000000A8548C078000200B283498978084350
:1015C000824908800846B0F9000000EE100AB8EE23
:1015D000C00A7F48D0ED000A20EE200AD4ED080AA8
:1015E00020EE200A84ED010A77484079000200B21B
:1015F000754909790843754908800846B0F9000023
:1016000000EE100AB8EEC00A7148D0ED000A20EED4
:10161000200AD4ED080A20EE200A84ED020AFFF722
:1016200095FF08226849002000F024F9FFF784FFA5
:10163000654800780F284FD166480078F0B36248BB
:10164000C078000200B26049897808435F49088089
:1016500094ED090A0846B0F9000000EE900AF8EE91
:10166000E00A5D4890ED001A10EE810A84ED030A4D
:1016700055484079000200B253490979084353495B
:10168000088094ED0A0A0846B0F9000000EE900ABE
:10169000F8EEE00A504890ED001A10EE810A84ED51
:1016A000040A4948C079000200B2474989790843D1
:1016B0004649088094ED0B0A084600E00DE0B0F9B9
:1016C000000000EE900AF8EEE00A434890ED001AA0
:1016D00010EE810A84ED050A44E03B48C078000220
:1016E00000B2394989780843384908800846B0F97A
:1016F000000000EE100AB8EEC00A3748D0ED000A2C
:1017000020EE200A84ED030A2F484079000200B23F
:101710002D49097908432D4908800846B0F9000091
:1017200000EE100AB8EEC00A2B48D0ED000A20EEF9
:10173000200A84ED040A2448C079000200B222493C
:1017400089790843214908800846B0F9000000EE75
:10175000100AB8EEC00A2048D0ED000A20EE200A98
:1017600084ED050AFFF7DEFEA22000F0A3F80222B6
:101770001549222000F07EF8FFF7CAFE12480078D3
:10178000C0001149497840EA6110104908800846B4
:10179000B0F90000B0F5806F05DB08460088A0F5C1
:1017A000006000B208800948B0F9000000EE100A9D
:1017B000F8EEC00AB4EE001AB3EE070A00EE810A92
:1017C00084ED070A10BD00004E04002056040020DE
:1017D00010040020200400201404002070B50446EA
:1017E0000D461C48046000201B4908700EF0F2FCF6
:1017F000194909780843184908700EF0A1FD1649E7
:1018000009780843144908701DB1144800F03EF9E6
:101810001CE09FED130A114880ED090A9FED110AA3
:1018200080ED0A0A9FED0F0A80ED0B0A9FED0E0A6C
:1018300080ED0C0A90ED0C0ADFED0C0A80EE801AA8
:1018400080ED081A9FED0A0A80ED060A024800782A
:1018500070BD0000580400201A0400207C8A00207B
:10186000AC38223BB016CE393F161B41C3F51C41A4
:101870000000204270B506460C46154646F0800032
:1018800000F018F806E0552000F014F82070641CF1
:10189000681EC5B2002DF6D170BD70B504460D4668
:1018A00044F0800000F006F8552000F003F828709E
:1018B00070BD000001B582B04FF47A70012301AA17
:1018C00002A900900348006803F09CFD9DF8040005
:1018D0000EBD00005804002070B505460C46284691
:1018E000FFF7E8FF2046FFF7E5FF70BDD2ED020AE3
:1018F00092ED021AB6EE000A00EEC10AD2ED030A1A
:1019000092ED031A00EEC10AD0ED000A20EE200A83
:10191000D2ED010A92ED021A60EE810A92ED001AF0
:10192000D2ED031A41EE610A90ED011A00EE810A30
:10193000D2ED010A92ED031A60EE810A92ED001ACF
:10194000D2ED021A41EE210A90ED021A00EE810A50
:10195000F0EE000A20EE200A81ED000A92ED010A65
:10196000D2ED020A20EE200AD2ED000A92ED031A0F
:1019700000EE810AD0ED000A60EE200A92ED011A15
:10198000D2ED011AB6EE000A01EE610AD2ED031A99
:1019900092ED032AB0EE401A01EEC21AD0ED011A00
:1019A000B0EE600A01EE210AD2ED020A92ED031AAE
:1019B00060EE810A92ED001AD2ED011A41EE610A41
:1019C00090ED021A00EE810AF0EE000A20EE200AE5
:1019D00081ED010A92ED010AD2ED030A20EE200A00
:1019E000D2ED000A92ED021A00EEC10AD0ED000A13
:1019F00020EE200AD2ED020A92ED031A60EE810A6F
:101A000092ED001AD2ED011A41EE210A90ED011A71
:101A100000EE810A92ED011AD2ED011AF6EE000AEB
:101A200041EE610A92ED021AD2ED021A41EE610A0C
:101A300090ED021A00EE810AF0EE000A20EE200A74
:101A400081ED020A704700BFFEE7000010B50248B2
:101A500001F0D3F810BD0000F009002010B50248D5
:101A600001F0CBF810BD0000F009002010B50248CD
:101A700001F0C3F810BD0000180A002010B502489C
:101A800001F0BBF810BD0000180A002070B52DED64
:101A9000048B88B0044600200690079000F01AFCE2
:101AA000FE4880ED000A00BF00F014FCFB48D0EDBA
:101AB000000A30EE600AF2EE040AB4EEE00AF1EE3B
:101AC00010FA14DD9FEDF60A84ED090A9FEDF50A80
:101AD00084ED0A0A9FEDF30A84ED0B0A9FEDF20AEA
:101AE00084ED0C0A9FEDF10A84ED060A55E29FEDA4
:101AF000F00A00F0ABFB9FEDEF0A84ED0C0A9FEDBE
:101B0000ED0A84ED090A9FEDEB0A84ED0A0A9FEDC8
:101B1000E90A84ED0B0A002673E1FFF703FD92202A
:101B2000FFF7C8FE062206A91220FFF7A3FEFFF763
:101B3000EFFC9DF81900000200B29DF8181040EA71
:101B4000010500EE105AB8EEC00ADB48D0ED000ADD
:101B500020EE200A84ED000A9DF81B00000200B26E
:101B60009DF81A1040EA010500EE105AB8EEC00ABE
:101B7000D148D0ED000A20EE200A84ED010A9DF83C
:101B80001D00000200B29DF81C1040EA010500EEA5
:101B9000105AB8EEC00AC848D0ED000A20EE200A5C
:101BA00084ED020AD4ED000A60EEA00A94ED011A59
:101BB000D4ED011A41EE210A94ED021AD4ED021A75
:101BC00041EE210AB0EE600A0DF0BBFDB0EE408A96
:101BD00094ED0C0A30EE080A84ED0C0AFFF7B6FC0F
:101BE000082206A90020FFF745FEFFF7A5FC9DF897
:101BF00018000F2850D19DF81B00000200B29DF87C
:101C00001A1040EA010500EE105AB8EEC00AAB48BF
:101C1000D0ED000A20EE200A84ED030A94ED090AB3
:101C2000D4ED030A30EE200A84ED090A9DF81D0068
:101C3000000200B29DF81C1040EA010500EE105AA7
:101C4000B8EEC00A9D48D0ED000A20EE200A84EDCF
:101C5000040A94ED0A0AD4ED040A30EE200A84ED59
:101C60000A0A9DF81F00000200B29DF81E1040EA0B
:101C7000010500EE105AB8EEC00A9048D0ED000AF7
:101C800020EE200A84ED050A94ED0B0AD4ED050A36
:101C900030EE200A84ED0B0A06BBF0EE488AB0EE67
:101CA000489A002017E004F10C0101EB800191ED4E
:101CB000000A03A901EB800181ED000A04F10C0187
:101CC00001EB800191ED000A694601EB800181ED95
:101CD000000A411CC8B20328E5DB49E0B4EEE88AFB
:101CE000F1EE10FA01DDF0EE488AB4EEC98AF1EEA9
:101CF00010FA01D2B0EE489A002037E004F10C014E
:101D000001EB800191ED000A03A901EB8001D1ED07
:101D1000000AB4EEE00AF1EE10FA0ADD04F10C015B
:101D200001EB800191ED000A03A901EB800181ED37
:101D3000000A04F10C0101EB800191ED000A6946F3
:101D400001EB8001D1ED000AB4EEE00AF1EE10FAE9
:101D50000AD204F10C0101EB800191ED000A694601
:101D600001EB800181ED000A411CC8B20328C5DBEC
:101D700038EEC90A524880ED000A002012E003A99B
:101D800001EB800191ED000A694601EB8001D1ED84
:101D9000000A30EE600A4B4901EB800181ED000A38
:101DA000411CC8B20328EADB454890ED000AF6EE74
:101DB000000AB4EEE00AF1EE10FA1BDC414890EDA7
:101DC000000ADFED410AB4EEE00AF1EE10FA11DC90
:101DD00090ED010ADFED3C0AB4EEE00AF1EE10FAF4
:101DE00008DC90ED020ADFED380AB4EEE00AF1EE0D
:101DF00010FA00DD0AE09FED350A00F027FA701CAA
:101E000086B2334800888642FFF687AE00BFD4ED25
:101E10000C0A2F48008800EE100AB8EE400A80EE47
:101E2000801A84ED0C1A002015E004F1240101EB66
:101E30008001D1ED000A2649098800EE101AB8EE9B
:101E4000400A80EE801A04F1240101EB800181ED4B
:101E5000001A411CC8B20328E7DBFFF763FBA2208E
:101E6000FFF728FD022206A92220FFF703FDFFF756
:101E70004FFB9DF81800C0009DF8191040EA61154D
:101E8000B5F5806F02DBA5F5006005B200EE105AD3
:101E9000F8EEC00AB4EE001A1CE00000480400206E
:101EA000AC38223BB016CE393F161B410000204211
:101EB0000AD7A33B000000001004002014040020F7
:101EC0001C040020708A00209A99193E6F12033A70
:101ED0004C040020B3EE070A00EE810A84ED060AE6
:101EE00034480088401C00B232490880324890EDE6
:101EF000000AF6EE000AB4EEE00AF1EE10FA3FF73F
:101F0000D3AD94ED0C0ADFED2D0A30EE600AB0EE91
:101F1000C00AF6EE000AB4EEE00AF1EE10FAEEDCCA
:101F2000274890ED000A5FED180AB4EEE00AF1EEE2
:101F300010FAE4DC90ED010A5FED1D0AB4EEE00A50
:101F4000F1EE10FADBDC90ED020A5FED210AB4EE4F
:101F5000E00AF1EE10FAD2DC94ED090AB0EEC00A04
:101F6000DFED180AB4EEE00AF1EE10FAC7DC94EDEA
:101F70000A0AB0EEC00ADFED130AB4EEE00AF1EE91
:101F800010FABCDC94ED0B0AB0EEC00ADFED0D0ACE
:101F9000B4EEE00AF1EE10FAB1DC00BF94ED0C0AE9
:101FA000DFED090A80EE801A84ED081A08B0BDEC56
:101FB000048B70BD220400201C040020CDCC1C41E9
:101FC000708A00200AD7233CC3F51C412DE9F04F4D
:101FD000DDE90DC8DDF83C9009ADE0CD0C9C4FF07B
:101FE000000A05E011F80AB000F80AB00AF1010A87
:101FF000BAF1030F04DA11F80AB0BBF1000FF1D106
:1020000090F803B02BF0380B0BF1380B80F803B0CD
:1020100090F803B062F3020B80F803B0B0F803B09D
:1020200063F3891BA0F803B090F804B065F3850B47
:1020300080F804B0B0F807B066F3090BA0F807B059
:10204000B0F808B06CF38C0BA0F808B0B0F809B089
:1020500068F34F1BA0F809B0B0F804B067F38E1B0B
:10206000A0F804B0B0F805B064F3CF1BA0F805B039
:102070004FF0000A09E099F800B000F10F0E0EF8D9
:102080000AB009F101090AF1010AA245F3D3BDE83A
:10209000F08F10B500BF012010F0C4FEFBE7000078
:1020A00010B5024801F02EFA10BD0000580D0020B6
:1020B00010B5024801F026FA10BD0000B80A002051
:1020C00010B5024801F01EFA10BD0000B80D002046
:1020D00010B5024801F016FA10BD0000980C00205F
:1020E00010B5024801F00EFA10BD0000180B0020D8
:1020F00010B5024801F006FA10BD0000180E0020CD
:1021000010B5024801F0FEF910BD0000F80C0020E7
:102110000146087810381823B0FBF3F20848805CB9
:10212000C865032A05D908686FF30900001D886592
:1021300003E008686FF309008865886D7047000048
:10214000B8770108014600208A6A8B69CBB932B1A1
:10215000012A0DD0022A03D0032A10D10EE000BFBD
:10216000CB6A03F08073B3F1807F00D1012007E0D8
:10217000CB6AB3F1C07F00D1012001E000E000BFD5
:1021800034E08B69B3F5005F1AD132B1012A07D070
:10219000022A03D0032A11D10AE000BF01200EE079
:1021A000CB6A03F08073B3F1807F00D1012006E099
:1021B000CB6AB3F1C07F00D1012000E000BF15E081
:1021C00032B1012A05D0022A04D0032A0CD103E03F
:1021D00000BF00BF012008E0CB6A03F08073B3F1B9
:1021E000807F00D1012000E000BF00BF704730B504
:1021F0000468246824F4802405682C600468636003
:102200008468402C04D10468A2600468E16003E0A3
:102210000468A1600468E26030BD000008B50848A9
:1022200040680090074900980968884204D206482F
:102230000068401C0449086002490098086008BD15
:10224000001000E0800400207C0400200C49486855
:10225000F0EE400A00BF0A494968091A01EE101A57
:10226000F8EE411A074991ED001AB8EE411A20EE36
:10227000811AF4EEC11AF1EE10FAECD370470000A7
:10228000001000E07004002010B52DED028B82B02C
:1022900004460E484068019020680199081A00EE33
:1022A000100AF8EE400A0A4890ED000AB8EE400A1B
:1022B00080EE801AB0EE418A01982060FFF7AEFFF1
:1022C000B0EE480A02B0BDEC028B10BD001000E079
:1022D0007004002010B52DED028B00F05FF80F4860
:1022E00090ED000AB8EE400A808800EE900AF8EE01
:1022F000600A9FED0B1A00EE810A0848C08800EEC4
:10230000900AF8EE600A9FED071A00EE810AB0EE1F
:10231000408AB0EE480ABDEC028B10BD6804002074
:102320006F12833ABD37863514490968491C134A30
:1023300011601349096841F08071114A1160002150
:10234000104A51601146096841F0010111600E49BF
:1023500041430E4A1160114609684FF47A72B1FB8D
:10236000F2F10B4A116009490968074AB1FBF2F121
:10237000084A11600021084A11607047900400204B
:10238000FCED00E0001000E040420F00700400206F
:1023900074040020780400207C04002038B529480B
:1023A00040680090FFF73AFF274800684FF0FF3180
:1023B000A0FB01310098181841F10001234A03C223
:1023C000234800232149026803C9FEF779FD214A09
:1023D00003C220480CC81E4800680024A2FB001558
:1023E00003FB005002FB04021848D0E90030591AE0
:1023F00060EB0200184AC2E900101648006817494D
:102400000860174800231449026803C9FEF758FD05
:1024100012498880084680881149096841430E485E
:10242000D0E90030591A60F100000E4AC2E90010EC
:102430000D4800230B49026803C9FEF741FD074917
:10244000C88038BD001000E07C0400208804002013
:102450007004002098040020A004002068040020DC
:1024600074040020A804002078040020704710B5F0
:10247000082001F03DFA10BD10B5102001F038FA27
:1024800010BD10B5202001F033FA10BDD2ED020AC4
:1024900092ED021AB6EE000A00EEC10AD2ED030A6E
:1024A00092ED031A00EEC10AD0ED000A20EE200AD8
:1024B000D2ED010A92ED021A60EE810A92ED001A45
:1024C000D2ED031A41EE210A90ED011A00EE810AC5
:1024D000D2ED010A92ED031A60EE810A92ED001A24
:1024E000D2ED021A41EE610A90ED021A00EE810A65
:1024F000F0EE000A20EE200A81ED000A92ED010ABA
:10250000D2ED020A20EE200AD2ED000A92ED031A63
:1025100000EEC10AD0ED000A60EE200A92ED011A29
:10252000D2ED011AB6EE000A01EE610AD2ED031AED
:1025300092ED032AB0EE401A01EEC21AD0ED011A54
:10254000B0EE600A01EE210AD2ED020A92ED031A02
:1025500060EE810A92ED001AD2ED011A41EE210AD5
:1025600090ED021A00EE810AF0EE000A20EE200A39
:1025700081ED010A92ED010AD2ED030A20EE200A54
:10258000D2ED000A92ED021A00EE810AD0ED000AA7
:1025900020EE200AD2ED020A92ED031A60EE810AC3
:1025A00092ED001AD2ED011A41EE610A90ED011A86
:1025B00000EE810A92ED011AD2ED011AF6EE000A40
:1025C00041EE610A92ED021AD2ED021A41EE610A61
:1025D00090ED021A00EE810AF0EE000A20EE200AC9
:1025E00081ED020A704772B600BFFEE710B59FED9D
:1025F000072ADFED061A9FED051ADFED040A9FEDAD
:10260000030A022102480EF0F9FB10BD0000000091
:10261000F009002010B52DED0E8B0446B0EE408A77
:10262000F0EE609AB0EE41AAF0EE61BAB0EE42BAB6
:10263000F0EE62AAB0EE43EAF0EE63DAB0EE44DA0E
:10264000F0EE64CAB0EE45CAF0EE658AB0EE469A86
:1026500064212046FEF74CFD84ED008AC4ED019A0A
:1026600084ED02AAC4ED03BA84ED04BAC4ED05AA50
:1026700084ED06EA84ED07CAC4ED088A84ED099A60
:10268000C4ED0DDA84ED0CDAC4ED0ECABDEC0E8B90
:1026900010BD00002DE9F0470C4608AD95E8E010AC
:1026A000DDE90C89002104E014F801A000F801A084
:1026B000491C032904DA14F801A0BAF1000FF3D180
:1026C00090F803A062F3020A80F803A090F803A038
:1026D0002AF0380A0AF1280A80F803A0B0F803A00B
:1026E00063F3891AA0F803A090F804A065F3850AA3
:1026F00080F804A0B0F804A066F38E1AA0F804A035
:10270000B0F805A067F3CF1AA0F805A0B0F807A0AD
:102710006CF3090AA0F807A0B0F808A068F38C0AC7
:10272000A0F808A0B0F809A069F34F1AA0F809A012
:10273000DFED050A60EE200AFDEEE00A10EE90AA39
:10274000C0F80BA0BDE8F08700007A4410B52DED6D
:10275000028BB0EE408AF0EE608AF5EEC08AF1EEB0
:1027600010FA0ADD144890ED000A38EE400AC0EE77
:10277000280A1248C0ED000A04E09FED110A0F4834
:1027800080ED000A0C4890ED000A38EE400A0D4832
:1027900080ED000A094890ED000A0B4805F0B6FBF1
:1027A0000A4880ED000A044880ED008A074890ED51
:1027B000000ABDEC028B10BDC0060020C806002038
:1027C00000000000CC060020089B0020C40600206A
:1027D00010B5024692F82030012B01D0022B06D111
:1027E00010684069084314686061002010BD506A99
:1027F00040F4802050620120F8E7F0B504460D4611
:102800001E4694F8207020688368A86800B900E02C
:1028100000BF012F01D0022F7DD103F0806030B9BD
:1028200003F0006018B903F0805000287ED0C3F395
:102830000161012088403060A86860B9B5F800C027
:10284000E86840EA4C5C206800F5C07000EB0110BD
:10285000C0F800C00FE0D5E901C040EACC00D5F8CF
:102860000CC040EA0C00D4F800C00CF5C07C0CEBA6
:10287000011CCCF80000D5F810C0206800F5C0702D
:1028800000EB0110C0F804C0287D01280ED120689B
:1028900000F5C07000EB0110406840F4807C2068B7
:1028A00000F5C07000EB0110C0F804C0D07900063C
:1028B00092F806C040EA0C4092F805C040EA0C20AD
:1028C00092F804C040EA0C00D4F800C00CF5C07CBB
:1028D0000CEB011CCCF80C00D078000692F802C07A
:1028E00040EA0C4092F801C040EA0C2092F800C087
:1028F00040EA0C00D4F800C00CF5C07C0CEB011CC5
:10290000CCF80800206800F5C07000EB01100068EA
:1029100040F0010C01E00FE008E0206800F5C07015
:1029200000EB0110C0F800C00020F0BD606A40F468
:10293000001060620120F8E7606A40F48020606265
:102940000120F2E7F0B504460A4694F82050012D24
:1029500001D0022D7ED1424901F50071086840F096
:1029600001000860086820F47C5008600868566A16
:1029700040EA06200860107D00F01F06012000FAE2
:1029800006F3C8699843C861A1F50071D069C8B958
:10299000D1F80C029843C1F80C02908880B2968955
:1029A00040EA064601F51070576940F83760108814
:1029B00080B2168940EA064601F51070576900EBAF
:1029C000C7004660D069012819D1D1F80C0218431C
:1029D000C1F80C02908880B2168840EA064601F5DC
:1029E0001070576940F83760908980B2168940EAC4
:1029F000064601F51070576900EBC7004660906904
:102A000028B9D1F804029843C1F8040204E0D1F8CF
:102A100004021843C1F80402106928B9D1F814025D
:102A20009843C1F8140204E0D1F814021843C1F825
:102A30001402106A012804D1D1F81C021843C1F80D
:102A40001C02D1F8000220F00100C1F800020020B1
:102A5000F0BDFFE7606A40F4802060620120F7E784
:102A600000640040704770B5044694F82050012D72
:102A700001D0022D7DD151B92068C06800F003005B
:102A800080B9606A40F400106062012070BD206867
:102A9000006900F0030028B9606A40F40010606229
:102AA0000120F3E7206800F5D87000EB0110006802
:102AB00000F004009060906840B9206800F5D8707C
:102AC00000EB01100068400D106007E0206800F581
:102AD000D87000EB01100068C0085060206800F555
:102AE000D87000EB0110006800F00200D060206890
:102AF00000F5D87000EB0110406800F00F000828C6
:102B000002D30820106108E0206800F5D87000EBBF
:102B10000110406800F00F001061206800F5D870C7
:102B200000EB0110406800F47F40000A90612068CB
:102B300000F5D87000EB01104068000C506120686F
:102B400000F5D87000EB011080681870206800F55F
:102B5000D87000EB0110806800F47F40000A5870C4
:102B6000206800F5D87000EB0110806800F47F0049
:102B700000E03CE0000C9870206800F5D87000EB95
:102B800001108068000ED870206800F5D87000EB46
:102B90000110C0681871206800F5D87000EB0110B2
:102BA000C06800F47F40000A5871206800F5D870B2
:102BB00000EB0110C06800F47F00000C98712068E1
:102BC00000F5D87000EB0110C068000ED87131B963
:102BD0002068C06840F020002668F06005E02068AA
:102BE000006940F020002668306100204EE7606AEE
:102BF00040F480206062012048E72DE9F05F044640
:102C00000025206846692068D0F80490206887680D
:102C10002068D0F80CA02068D0F810B02068D0F858
:102C2000188006F00100002855D007F00100C0B15F
:102C300001202168886007F0020018B1204600F0EA
:102C4000EEFB0EE007F0040010B145F4006508E06B
:102C500007F0080010B145F4805502E0204600F06E
:102C6000DDFB07F48070C8B14FF480702168886084
:102C700007F4007018B1204600F0D3FB0EE007F413
:102C8000806010B145F4005508E007F4006010B111
:102C900045F4804502E0204600F0C2FB07F4803096
:102CA000C8B14FF480302168886007F4003018B153
:102CB000204600F0B8FB0EE007F4802010B145F488
:102CC000004508E007F4002010B145F4803502E02B
:102CD000204600F0A7FB06F0080038B10AF010000B
:102CE00020B145F4007510202168C86006F004008A
:102CF00040B10AF0080028B108202168C8602046C9
:102D000000F01CFA06F0020038B12068C06800F03C
:102D1000030010B1204600F013FA06F0400038B16D
:102D20000BF0100020B145F4806510202168086187
:102D300006F0200040B10BF0080028B108202168FF
:102D40000861204600F012FB06F0100038B1206840
:102D5000006900F0030010B1204600F009FB06F402
:102D6000003040B109F0100028B1102021684860FF
:102D7000204600F023FB06F4803040B109F0080043
:102D800028B1082021684860204600F04DFB06F479
:102D9000004088B309F0040078B306F4807020B1D5
:102DA00008F0010008B145F0010506F4007020B1FB
:102DB00008F0020008B145F0020506F4806020B179
:102DC00008F0040008B145F0040506F40060A0B165
:102DD00008F0700088B108F07000402817D006DCB9
:102DE00010280BD020280CD0302819D10CE0502806
:102DF00010D0602814D110E01DE019E045F008055E
:102E00000FE045F010050CE045F0200509E045F025
:102E1000400506E045F0800503E045F4807500E0DC
:102E200000BF00BF2068806920F0700021688861C1
:102E30000420216848602DB1606A28436062204602
:102E4000FFF710FEBDE8F09F70B504460CB90120F5
:102E500070BD94F8200010B9204600F0AFF820684B
:102E6000006840F001002168086000F04FFE054650
:102E70000DE000F04BFE401B0A2808D9606A40F4C0
:102E800000306062052084F820000120E0E720681F
:102E9000406800F001000028EBD02068006820F0B6
:102EA00002002168086000F031FE05460DE000F0E8
:102EB0002DFE401B0A2808D9606A40F40030606289
:102EC000052084F820000120C2E72068406800F057
:102ED00002000028EBD1207E012806D1206800687E
:102EE00040F080002168086005E02068006820F05C
:102EF000800021680860607E012806D12068006893
:102F000040F040002168086005E02068006820F07B
:102F1000400021680860A07E012806D12068006872
:102F200040F020002168086005E02068006820F07B
:102F3000200021680860E07E012806D12068006832
:102F400020F010002168086005E02068006840F06B
:102F5000100021680860207F012806D120680068E1
:102F600040F008002168086005E02068006820F053
:102F7000080021680860607F012806D12068006889
:102F800040F004002168086005E02068006820F037
:102F9000040021680860D4E902010843216908435C
:102FA000616908436168491E08432168C8610020BF
:102FB0006062012084F82000002049E710B586B047
:102FC0000446142101A8FEF793F856492068884268
:102FD00049D155480068401C5349086008460068BC
:102FE00001280FD100BF002000905048006840F039
:102FF00000704E4908600846006800F000700090BC
:1030000000BF00BF00BF0020009048481038006893
:1030100040F008004549103908600846006800F093
:103020000800009000BF00BF032001900220029022
:1030300000200390032004900920059001A93C483A
:1030400000F064FC00220521132000F027FE13206D
:1030500000F010FE00220521142000F01FFE1420B5
:1030600000F008FE5CE033492068884258D100BF78
:10307000002000902D48006840F080602B490860D7
:103080000846006800F08060009000BF00BF26483E
:103090000068401C244908600846006801280FD1D8
:1030A00000BF002000902148006840F000701F49D8
:1030B00008600846006800F00070009000BF00BF84
:1030C00000BF0020009019481038006840F002004E
:1030D0001649103908600846006800F002000090A8
:1030E00000BF00BF602001900220029000200390EA
:1030F000032004900920059001A90F4800F006FC68
:10310000002205213F2000F0C9FD3F2000F0B2FD64
:1031100000220521412000F0C1FD412000F0AAFD60
:1031200006B010BD006400402C0000204038024072
:10313000000C02400068004000040240704700009C
:1031400010B58AB004467C480068401C7A49086083
:1031500001AB03AA00212046FFF785FC40F20322C1
:103160000398811A90423FD007DC012871D0A0F269
:10317000012048B101286DD11DE001294DD00E2953
:1031800069D00F29F7D167E06C48C169C069401C5C
:103190006A4AD061322904D801A910460EF090FB8A
:1031A00003E001A965480DF08FFF65480068401CE9
:1031B00063490860BDE06148026C006C401C5F49D7
:1031C0000864322A05D801A95C4824300EF078FB47
:1031D00004E001A9594824300DF076FF59480068F1
:1031E000401C58490860A4E05448426E406E401CA0
:1031F00052494866322A05D801A9504848300EF095
:103200005FFB04E001A94D4848300DF05DFF4E48DA
:103210000068401C4C4908608BE04848D0F8882082
:10322000D0F88800401C4549C1F88800322A05D8EA
:1032300001A942486C300EF043FB04E001A93F486D
:103240006C300DF041FF41480068401C3F49086068
:103250006FE034E06CE037E03D480068401C3C49DA
:1032600008609DF804009DF8051040EA012000EE7A
:10327000100AB8EEC00ADFED370A80EE201A364891
:1032800080ED001A9DF806009DF8071040EA012025
:1032900000EE100AB8EEC00ADFED2E0A80EE201A0A
:1032A0002E4880ED001A2C4890ED000A2B48D0EDF6
:1032B000000A20EE200A2A4880ED000A39E001A920
:1032C00028480DF027FE34E09DF805009DF8041015
:1032D00040EA012000EE100AB8EEC00AF2EE040A3D
:1032E00080EE201A204880ED031A9DF806001E4942
:1032F00048709DF8070088709DF80800C8709DF818
:10330000090008719DF80B009DF80A1040EA0120A1
:1033100000B200EE100AB8EEC00AF2EE040A80EE27
:10332000201A114880ED021AC07800B101E000BFF8
:1033300000BF00BF0AB010BDC0040020108B0020E9
:10334000C8040020CC040020D0040020D4040020B5
:10335000C40400200000C842B4040020B8040020C7
:10336000BC040020B08A0020D48A002070470000EE
:1033700010B58AB0044601AB03AA01212046FFF72D
:1033800072FB0398A0F2012088B90B48C169C0699B
:10339000401C094AD061322904D801A910460EF018
:1033A0008FFA03E001A904480DF08EFE00E000BF93
:1033B00000BF0AB010BD0000A08B0020704770B5A0
:1033C000044694F82000012822D1022084F820002D
:1033D0002068006820F001002168086000F096FB7A
:1033E00005460DE000F092FB401B0A2808D9606AF0
:1033F00040F400306062052084F82000012070BD98
:103400002068406800F001000028EBD16062F6E718
:10341000606A40F4002060620120F0E77047704766
:103420007047704770477047704770B50446A56D88
:1034300000F06CFB064694F83500022808D0802086
:10344000606500BF002084F8340000BF012070BD1B
:103450002068006820F01600216808602068406934
:1034600020F0800021684861206C08B9A06C28B168
:103470002068006820F00800216808602068006863
:1034800020F001002168086010E000F03FFB801B85
:1034900005280BD920206065032084F8350000BF83
:1034A000002084F8340000BF0320D0E720680068C3
:1034B00000F001000028E8D194F85C103F2088401B
:1034C000A860012084F8350000BF002084F8340093
:1034D00000BF00BFBBE7014691F83500022803D0CA
:1034E0008020486501207047052081F83500086874
:1034F000006820F001000A6810600020F3E7014630
:10350000486D7047F8B50446002000908C4800686C
:103510004FF41651B0FBF1F7A56D2E6894F85C10CE
:1035200008208840304098B12068006800F004000E
:1035300070B12068006820F004002168086094F8E9
:103540005C1008208840A860606D40F00100606554
:1035500094F85C1001208840304068B120684069D0
:1035600000F0800040B194F85C1001208840A86011
:10357000606D40F00200606594F85C1004208840A3
:10358000304068B12068006800F0020040B194F853
:103590005C1004208840A860606D40F00400606505
:1035A00094F85C1010208840304078B320680068A0
:1035B00000F0080050B394F85C1010208840A86018
:1035C0002068006800F4802080B12068006800F462
:1035D000002028B9206CC8B12046216C884715E02E
:1035E000A06C98B12046A16C88470FE02068006865
:1035F00000F4807028B92068006820F00800216875
:103600000860206C10B12046216C884794F85C104B
:10361000202088403040002865D02068006800F0F5
:10362000100000285FD094F85C1020208840A8602B
:1036300094F83500052828D12068006820F016008D
:10364000216808602068406920F080002168486196
:10365000206C08B9A06C28B12068006820F0080030
:103660002168086094F85C103F208840A860012021
:1036700084F8350000BF002084F8340000BF206DBE
:1036800010B12046216D8847F8BD2068006800F41D
:10369000802080B12068006800F4002028B9606CA8
:1036A00010B12046616C88471DE0E06BD8B1204620
:1036B000E16B884717E02068006800F4807068B903
:1036C0002068006820F0100021680860012084F85C
:1036D000350000BF002084F8340000BFE06B10B15B
:1036E0002046E16B8847606D38B3606D00F00100E3
:1036F000F0B1052084F835002068006820F0010052
:103700002168086000BF0098401C0090B84200D9B2
:1037100005E02068006800F001000028F3D100BF38
:10372000012084F8350000BF002084F8340000BF79
:10373000E06C10B12046E16C884700BFA4E70000B0
:10374000440000202DE9F0410446002500F0DEF998
:10375000074614B90120BDE8F081606A00B100BFDE
:10376000022084F8350000BF002084F8340000BF38
:103770002068006820F00100216808600AE000F07D
:10378000C5F9C01B052805D920206065032084F8F1
:103790003500E0E72068006800F001000028EED165
:1037A0002068056821480540D4E901010843E16823
:1037B00008432169084361690843A1690843E16935
:1037C0000843216A08430543606A042803D1D4E909
:1037D0000B0108430543206805602068456925F012
:1037E0000705606A0543606A04280DD1A06A054395
:1037F000E06A48B12046FEF7A5FC28B1402060658C
:10380000012084F83500A6E7206845612046FEF7D0
:103810007FFC064694F85C103F208840B060002092
:103820006065012084F83500002094E73F8010F0A7
:103830002DE9F04704460D4616461F464FF0000896
:10384000D4F8589000BF94F83400012802D1022027
:10385000BDE8F087012084F8340000BF94F83500FB
:10386000012825D1022084F83500002060653B4600
:10387000324629462046FEF7BAFC94F85C103F20F9
:103880008840C9F808002068006840F016002168E8
:103890000860206C28B12068006840F008002168AA
:1038A00008602068006840F001002168086006E0B8
:1038B00000BF002084F8340000BF4FF002084046EB
:1038C000C6E7000070B5044600F020F9064625461C
:1038D000681C10B104480078054400BF00F016F9D8
:1038E000801BA842FAD370BD400000207047000042
:1038F00010B5044604480068204020B10248046026
:103900002046FFF7F3FF10BD143C0140F8B5024616
:103910000B460025002400200021D6E0012606FAEF
:1039200001F51E6806EA0504AC4274D11E7906F062
:103930000306012E04D01E7906F00306022E13D1D1
:1039400090684F000326BE40B0434F00DE68BE4083
:1039500030439060506801268E40B0431E79C6F314
:1039600000168E40304350601E7906F00306032E89
:1039700009D0D0684F000326BE40B0434F009E6878
:10398000BE403043D0601E7906F00306022E13D1EC
:10399000CF0802F1200656F827004E07F70E0F2633
:1039A000BE40B0434F07FF0E1E69BE403043CF08F4
:1039B00002F1200646F8270010684F000326BE409B
:1039C000B0431E7906F003064F00BE40304310603E
:1039D0005E6806F44036002E76D000BF00260096C2
:1039E0003C4E366846F480463A4F3E603E46366866
:1039F00006F48046009600BF00BF374E8F0856F889
:103A000027008E07370F0F26BE40B043334EB24219
:103A100002D1002624E057E0314EB24201D1012606
:103A20001EE0304EB24201D1022619E02E4EB242C3
:103A300001D1032614E02D4EB24201D104260FE03D
:103A40002B4EB24201D105260AE02A4EB24201D1E4
:103A5000062605E0284EB24201D1072600E00826DE
:103A60008F073F0FBE4030431B4E8F0846F827009C
:103A7000224E3068A0435E6806F4801606B12043EB
:103A80001E4E3060361D3068A0435E6806F4001696
:103A900006B12043194E361D3060184E361F30686F
:103AA000A0435E6806F4003606B12043134E361F6D
:103AB0003060361F3068A0435E6806F4803606B179
:103AC00020430E4E083E3060491C1029FFF426AFFB
:103AD000F8BD0000443802400838014000000240B0
:103AE0000004024000080240000C024000100240A6
:103AF0000014024000180240001C0240083C014033
:103B00000AB1816101E00B048361704701480068DC
:103B10007047000038000020034800680349097816
:103B20000844014908607047380000204000002028
:103B300010B50D48006840F400700B490860084655
:103B4000006840F4806008600846006840F48070B7
:103B50000860032000F0E0F80F2000F007F800F004
:103B60005FF8002010BD0000003C02402DE9F0414C
:103B700088B004460027B84600BF002001902448C2
:103B8000006840F00100224908600846006800F023
:103B90000100019000BF00BF02A903A800F09EFF32
:103BA000069F1FB900F0C2FF054602E000F0BEFF0D
:103BB00045001848B5FBF0F0A0F101084FF0804037
:103BC0001549086040F2E7311348C160C0F804802D
:103BD000002101618160816101F03AFD064696B9DC
:103BE0000D4801F083FD06466EB91C2000F042F836
:103BF000102C07D2002221461C2000F04FF8074865
:103C0000046000E00126304608B0BDE8F081000005
:103C10004038024040420F007C1500203C0000204C
:103C200008B500BF002000901148006840F48040B3
:103C30000F4908600846006800F48040009000BF0B
:103C400000BF00BF00200090081F006840F08050B7
:103C5000091F08600846006800F08050009000BF0F
:103C600000BF00220F21901E00F018F808BD0000D0
:103C7000443802400146084600280DDB00BF00BF63
:103C800000F01F0301229A4043099B0003F1E02347
:103C9000C3F8002100BF00BF00BF70472DE9F05FEF
:103CA00080460D46164600270BF0FAF807463946BF
:103CB0002A46334601F00700C0F1070ABAF1040FA3
:103CC00002D94FF0040A01E0C0F1070AD14600F121
:103CD000040ABAF1070F02D24FF0000A01E0A0F186
:103CE000030AD4464FF0010A0AFA09FAAAF1010AB6
:103CF0000AEA020A0AFA0CFA4FF0010B0BFA0CFB63
:103D0000ABF1010B0BEA030B4AEA0B0421464046D8
:103D10000BF0CEF8BDE8F09F00BF00F00702064BA5
:103D200019684FF6FF031940044B0B4343EA022185
:103D3000014B196000BF70470CED00E00000FA0570
:103D4000704710B50446D4F8E00409F0C3FF10BD75
:103D500070B504460D4605EBC50304F1140101EBF3
:103D60008301CA682946D4F8E00409F0DAFE70BD80
:103D700070B504460D4605EBC50304F5157101EB5E
:103D80008301CA682946D4F8E00409F03BFF70BDFE
:103D900010B50446D4F8E00409F09EFF10BD2DE9EB
:103DA000F04104460D4605F08000802808D105F05A
:103DB0000F0000EBC00104F1140000EB810607E0E6
:103DC00005F00F0000EBC00104F5157000EB810653
:103DD000314620680AF064FE07463846BDE8F081A7
:103DE00070B504460E4606F00F002179884201D9CD
:103DF000012070BD06F0800080280AD106F00F0077
:103E000000EBC00104F1140000EB81050120687093
:103E100009E006F00F0000EBC00104F5157000EB9F
:103E20008105002068700020A87006F00F0028703F
:103E300000BF94F89404012801D10220D9E70120A1
:103E400084F8940400BF294620680AF0B5FB00BF3F
:103E5000002084F8940400BF00BFCAE72DE9F047B2
:103E600005460E4690461F464FF0000906F08000BA
:103E700080280AD106F00F0000EBC00105F1140004
:103E800000EB81040120607009E006F00F0000EBF8
:103E9000C00105F5157000EB81040020607006F08C
:103EA0000F002070C8F30A00A0602771607808B185
:103EB00020786083022F01D10020607100BF95F847
:103EC0009404012802D10220BDE8F087012085F882
:103ED000940400BF214628680AF0BAFA00BF002007
:103EE00085F8940400BF4846EEE72DE9F041054609
:103EF0000E461746984606F00F0000EBC00105F588
:103F0000157000EB8104E760C4F810800020606148
:103F1000607006F00F002070A879012800D1E761D9
:103F2000AA79214628680AF0DBFB0020BDE8F08171
:103F300070B504460D4605F00F002179884201D97D
:103F4000012070BD05F0800080280AD105F00F0027
:103F500000EBC00104F1140000EB81060120707039
:103F600007E005EBC50104F5157000EB81060020A4
:103F700070700120B07005F00F00307000BF94F831
:103F80009404012801D10220DBE7012084F8940485
:103F900000BF314620680AF056FB05F00F0028B933
:103FA000A17904F29C4220680AF0CEFA00BF0020FA
:103FB00084F8940400BF00BFC3E72DE9F041054633
:103FC0000E461746984606F00F0000EBC00105F1BB
:103FD000140000EB8104E760C4F8108000206061E9
:103FE0000120607006F00F002070A879012800D130
:103FF000E761AA79214628680AF072FB0020BDE833
:10400000F0812DE9FE4F0446D4F800B05E462068EA
:104010000AF0F9FD002874D120680AF033FE08B9CF
:10402000BDE8FE8F40F608008059C0F30D20C4F8AB
:10403000D40420680AF026FE00F00200022805D110
:104040002068406900F002002168486120680AF099
:1040500019FE00F01000102845D12068806920F07A
:10406000100021688861DBF8209009F00F0000EB58
:10407000C00104F5157000EB810AC9F34340022822
:104080001AD147F6F07009EA000030B3C9F30A12FA
:104090005846DAF80C100AF0FAFDC9F30A11DAF8FA
:1040A0000C000844CAF80C00C9F30A11DAF814002D
:1040B0000844CAF8140010E0C9F3434006280CD1A4
:1040C000082204F29C4158460AF0E1FDC9F30A11A6
:1040D000DAF814000844CAF814002068806940F037
:1040E00010002168886120680AF0CCFD00F40020EF
:1040F000B0F5002F7BD1002520680AF093FD0290D7
:1041000072E0E1E2029800F00100002868D0E9B214
:1041100020680AF0AAFD804608F0010048B101219C
:1041200006F5306000EB451081602946204605F019
:104130000DFA08F00800082809D1082106F53060BA
:1041400000EB451081602946204605F0CDF908F0C6
:104150001000102805D1102106F5306000EB451045
:10416000816008F00200022824D1DBF8140000F07E
:104170008000802807D140F60400805940F4806117
:1041800040F60400815105EBC50104F5157000EB04
:10419000810A9AF80300012806D100208AF803005A
:1041A000E9B2204600F09BFA022106F5306000EBF0
:1041B0004510816008F02000202805D1202106F557
:1041C000306000EB4510816008F40050B0F5005FEE
:1041D00006D14FF4005106F5306000EB45108160C8
:1041E0006D1C029840080290029800288AD120682D
:1041F0000AF048FD00F48020B0F5802F7DD12068C2
:104200000AF006FD029000259AE0029800F00100F5
:10421000002873D0E9B220680AF00EFD804608F04D
:104220000100F0B305F00F0101208840019040F635
:1042300034008159019821EA000040F63401885188
:10424000012106F5106000EB45108160A07901287E
:1042500024D105EBC50104F1140000EB810005EB4E
:10426000C502C16804F1140000EB820080680144BB
:1042700005EBC50204F1140000EB8200C1606DB9CA
:1042800005EBC50104F1140000EB8100006928B9B9
:1042900004F29C42012120680AF056F9E9B2204656
:1042A00000E001E0FFF754FD08F00800082805D100
:1042B000082106F5106000EB4510816008F0100041
:1042C000102805D1102106F5106000EB4510816023
:1042D00008F04000402805D1402106F5106000EBB1
:1042E0004510816008F0020002281DD12946584679
:1042F0000AF04CFC05EBC50101E025E01CE004F1EF
:10430000140000EB810A9AF80300012806D100206E
:104310008AF80300E9B2204600F0D8F9022106F538
:10432000106000EB4510816008F08000802803D108
:104330002946204605F0ACF96D1C02984008029011
:10434000029800287FF461AF20680AF09BFC00F01F
:104350000040B0F1004F1CD140F60400805920F01D
:10436000010140F60400815194F8CC04012807D1E2
:10437000002084F8CC0400212046FFF7E1FC02E095
:10438000204600F0CDF92068406900F00040216827
:10439000486120680AF076FC00F40060B0F5006F18
:1043A0000ED140F60800805900F0010010B12046FF
:1043B00000F0E8F92068406900F400602168486175
:1043C00020680AF05FFC00F48050B0F5805F7ED179
:1043D00040F60400805920F0010140F604008151AC
:1043E000102120680AF0D2FB002732E04FF67F311F
:1043F00006F5106000EB4710816006F5106000EBD9
:104400004710006820F4001106F5106000EB47101B
:1044100001604FF67F3106F5306000EB4710816098
:1044200006F5306000EB4710006820F4001106F537
:10443000306000EB4710016006F5306000EB47107C
:10444000006840F0006106F5306000EB4710016045
:104450007F1C2079B842C9D840F61C00805940F032
:10446000011140F61C008151E07B70B1D6F8840840
:1044700040F00B01C6F8841840F64400805940F023
:104480000B0140F6440081510FE040F614008059C2
:1044900042F22B01084340F614018851081F80594D
:1044A00040F00B014FF401608151D6F8000820F470
:1044B000FE60C6F80008A17904F29C4220680AF068
:1044C00043F82068406900F48050216800E000E073
:1044D000486120680AF0D6FB00F40050B0F5005F98
:1044E00017D120680AF01CF820680AF079FBE07107
:1044F00000F016FB0090E279206800990AF00CFCAD
:10450000204600F0F5F82068406900F4005021686A
:10451000486120680AF0B6FB00F00800082808D1BE
:10452000204600F004F92068406900F00800216886
:10453000486120680AF0A6FB00F08000802818D1AE
:10454000DBF8180020F08000CBF8180001250DE002
:1045500005EBC50104F5157000EB8100C07801285A
:1045600003D1E9B22046FFF71AFC6D1C2079A8425E
:10457000EED820680AF086FB00F48010B0F5801FAA
:104580002DD1012522E006F5106000EB4510D0F892
:10459000009005EBC50104F1140000EB81000079E7
:1045A000012812D109F00040B0F1004F0DD10121D6
:1045B00005EBC50204F1140000EB8200C170E8B203
:1045C00040F080012046FFF7EAFB6D1C2079A842ED
:1045D000D9D82068406900F48010216848612068BB
:1045E0000AF050FB00F40010B0F5001F44D1012583
:1045F00038E006F5306000EB4510D0F8009005EB90
:10460000C50104F5157000EB81000079012828D15F
:1046100009F00040B0F1004F23D194F8D40400F029
:104620000100C9F3004188421BD1012105EBC502FD
:1046300004F5157000EB8200C170DBF8180040F043
:104640008000CBF81800DBF8140000F0800040B9BF
:1046500040F60400805940F4007140F60400815196
:1046600003E06D1C2079A842C3D800BF20684069D0
:1046700000F400102168486120680AF003FB00F094
:104680008040B0F1804F08D12046FFF75AFB2068E8
:10469000406900F080402168486120680AF0F2FA21
:1046A00000F0040004280FD12068D0F8049009F02D
:1046B0000400042802D12046FFF76AFB2068406806
:1046C00040EA09002168486000BFA9E470B50446CB
:1046D0000D462946D4F8E00409F02AFB70BD70B5F8
:1046E00004460D462946D4F8E00409F036FB70BDB7
:1046F00070B504460125E07908B9002506E0E079A7
:10470000022801D1012501E0FDF76DFF2946D4F80B
:10471000E00409F0AFFBD4F8E00409F063FB70BDDE
:1047200010B50446D4F8E00409F08DFB10BD10B5B7
:104730000446D4F8E00409F090FB10BD70B50446BF
:104740000D4600BF94F89404012801D1022070BDE9
:10475000012084F8940400BF6574294620680AF09B
:10476000C6FA00BF002084F8940400BF00BFEEE743
:1047700010B5044604F29C41D4F8E00409F090FB23
:1047800010BD000010B50446D4F8E00409F0CDFBDC
:104790002068D0F8000E40F001002168C1F8000E3A
:1047A000E07A28B10348006840F00600014908603B
:1047B00010BD000010ED00E0F8B50446002500260D
:1047C000207800F0010020B9207800F004000428CF
:1047D0002FD100205B498866FFF798F9054606E06F
:1047E000FFF794F9401B022801D90320F8BD564871
:1047F0000068C0F3C0600028F2D160688101207AAF
:1048000041EA007050498431086001204D498866B2
:10481000FFF77CF9054606E0FFF778F9401B022810
:1048200001D90320E2E748480068C0F3C0600028CF
:10483000F2D0207800F0020002287DD100BF0020D5
:10484000009041484030006840F080503E4940317F
:1048500008600846006800F08050009000BF00BF6C
:104860003A48006840F4807038490860FFF74EF914
:10487000054606E0FFF74AF9401B022801D903204C
:10488000B4E73248006800F480700028F2D02E4867
:104890007030006800F440764EB3A08900F4407098
:1048A000B04224D028487030006820F440760120BF
:1048B00027490860002008602348703006600068BF
:1048C00000F0010098B1FFF721F9054608E0FFF775
:1048D0001DF9401B41F28831884201D9032085E748
:1048E000194870300068C0F340000028EFD000BFC6
:1048F000A08900F44070B0F5407F0CD11248083018
:10490000006820F4F810134AE168114008430E498A
:104910000831086007E00C480830006820F4F810FF
:10492000094908310860084870300068A189C1F35E
:104930000B010843044900E002E07031086000BF49
:10494000002053E70000474200380240007000405A
:10495000400E4742FFFCFF0F70B504460D460CB9F0
:10496000012070BD5848006800F00700A84209D235
:1049700055490D700846006800F00700A84201D0B4
:104980000120EEE7207800F0020002281DD12078F7
:1049900000F00400042805D14C48006840F4E050C1
:1049A0004A490860207800F00800082805D14748E7
:1049B000006840F46040454908604448006820F0C1
:1049C000F000A168084341490860207800F0010028
:1049D000A8B36068012807D13C4808380068C0F3D4
:1049E0004040B8B90120BCE76068022802D0606886
:1049F000032807D1354808380068C0F3406048B93B
:104A00000120AEE7314808380068C0F3400008B91B
:104A10000120A6E72D48006820F0030061680843E4
:104A20002A490860FFF772F8064609E0FFF76EF8BA
:104A3000801B41F28831884202D9032091E707E0C8
:104A40002248006800F00C006168B0EB810FEDD1E6
:104A50001D48006800F00700A84209D91A490D70E6
:104A60000846006800F00700A84201D0012078E75E
:104A7000207800F00400042807D11448006820F4CE
:104A8000E050E168084311490860207800F0080010
:104A9000082808D10D48006820F46040216940EAE8
:104AA000C1000A49086000F061F808490968C1F3CB
:104AB0000311074A515CC84006490860064800686F
:104AC000FFF754F800204CE7003C02400838024051
:104AD000C0770108440000203C0000200F22026043
:104AE0000D4A126802F0030242600B4A126802F09B
:104AF000F0028260084A126802F4E052C260064A7C
:104B0000126802F46042D2080261044A126802F09C
:104B100007020A607047000008380240003C02406B
:104B200001480068704700004400002000B5FFF70E
:104B3000F7FF04490968C1F38221034A515CC84068
:104B400000BD000008380240D077010800B5FFF72B
:104B5000E7FF04490968C1F34231034A515CC84088
:104B600000BD000008380240D07701082DE9F04769
:104B7000002400250026A1462548006800F00C000E
:104B800020B1042805D008283AD105E0DFF8849048
:104B900039E0DFF8849036E01D48001F006800F01F
:104BA0003F041B48001F006800F4800078B11A48D9
:104BB0001749091F0968C1F38811A0FB017001465C
:104BC000224600233846FCF77BF905460EE01148E3
:104BD0000F49091F0968C1F38811A0FB0170014644
:104BE000224600233846FCF76BF905460848001FAB
:104BF0000068C0F30140401C4600B5FBF6F902E036
:104C0000DFF8109000BF00BF4846BDE8F087000005
:104C1000083802400024F400001BB700F8B5044631
:104C20000CB90120F8BD207800F00100002874D0F4
:104C3000F948006800F00C0004280DD0F648006820
:104C400000F00C00082813D1F348001F006800F49E
:104C50008000B0F5800F0BD1EF4808380068C0F332
:104C60004040002859D06068002856D10120D9E77B
:104C700000BF6068B0F5803F08D1E7480838006899
:104C800040F48030E449083908601EE06068B0F5FF
:104C9000A02F0DD1E0480838006840F48020DE499C
:104CA000083908600846006840F4803008600CE06D
:104CB000D9480838006820F48030D749083908609E
:104CC0000846006820F48020086000BF606890B14A
:104CD000FEF71CFF054606E0FEF718FF401B6428A0
:104CE00001D903209EE7CC4808380068C0F3404053
:104CF0000028F1D011E0FEF709FF054606E0FEF7B7
:104D000005FF401B642801D903208BE7C2480838FF
:104D10000068C0F340400028F1D1207800F0020084
:104D200002285FD1BC48006800F00C0058B1BA48B6
:104D3000006800F00C0008281CD1B748001F00686C
:104D400000F48000B0B9B44808380068C0F34000EF
:104D500020B1E068012801D0012063E7AE4808389F
:104D6000006820F0F800216940EAC100AA4908392A
:104D7000086037E0E06800B30120A8490860FEF74A
:104D8000C5FE054606E0FEF7C1FE401B022801D91C
:104D9000032047E7A04808380068C0F34000002817
:104DA000F1D09D480838006820F0F800216940EAF9
:104DB000C10099490839086014E00020974908604B
:104DC000FEF7A4FE054606E0FEF7A0FE401B022803
:104DD00001D9032026E7904808380068C0F3400056
:104DE0000028F1D1207800F0080008282CD1606953
:104DF000A8B101208A490860FEF788FE054606E052
:104E0000FEF784FE401B022801D903200AE78248EE
:104E10006C300068C0F340000028F1D014E000209E
:104E20007F490860FEF772FE054606E0FEF76EFE5B
:104E3000401B022801D90320F4E677486C30006853
:104E4000C0F340000028F1D1207800F004000428CD
:104E500070D1002770483830006800F0805090B959
:104E600000BF002000906C483830006840F080504F
:104E70006949383108600846006800F080500090A9
:104E800000BF00BF01276748006800F48070B0B918
:104E90006448006840F4807062490860FEF736FE9E
:104EA000054606E0FEF732FE401B022801D903202A
:104EB000B8E65C48006800F480700028F2D000BFBB
:104EC000A068012808D154486830006840F001000B
:104ED0005149683108601DE0A06805280DD14E4891
:104EE0006830006840F004004B49683108600846AB
:104EF000006840F0010008600CE047486830006836
:104F000020F001004449683108600846006820F03C
:104F10000400086000BFA068A8B1FEF7F7FD0546D1
:104F200009E0FEF7F3FD401B41F28831884202D9C7
:104F3000032077E626E0384868300068C0F3400078
:104F40000028EED013E0FEF7E1FD054608E0FEF78D
:104F5000DDFD401B41F28831884201D9032061E622
:104F60002D4868300068C0F340000028EFD1012FC1
:104F700007D129483830006820F080502649383160
:104F8000086000BFA069002845D02348006800F0F1
:104F90000C0008285DD0A069022845D100201F49D7
:104FA0000866FEF7B3FD054606E0FEF7AFFD401BC1
:104FB000022801D9032035E6174808380068C0F3F5
:104FC00040600028F1D1D4E907010843616A40EA52
:104FD00081110122A06AC2EB500041EA00412C205D
:104FE000005D41EA00600C49091F086001200B497F
:104FF0000866FEF78BFD054606E0FEF787FD401BC1
:10500000022801D903200DE6034808380068C0F3E0
:1050100040600028F1D049E00838024000004742D3
:10502000800E474200700040002021490866FEF7CC
:105030006DFD054606E0FEF769FD401B022801D91B
:105040000320EFE51B480068C0F340600028F2D160
:105050002CE0A069012800D1E4E51648001D06688F
:10506000A069012820D006F48001E06981421BD1AB
:1050700006F03F01206A814216D147F6C0703040E9
:10508000616AB0EB811F0FD106F440310122A06AA2
:10509000C2EB5000B1EB004F06D106F070612C203E
:1050A000005DB1EB006F01D00120BBE50020B9E548
:1050B000000047420038024070B504460CB9012098
:1050C00070BD607F20B900202077204600F04EF8A8
:1050D000022060772068C068C0F3001000283CD12F
:1050E00000BFCA202168486253202168486200BF7F
:1050F000204604F051FE0546EDB9206880681A4943
:105100000840216888602169606808436169084334
:10511000216889680843216888602168E06808611F
:1051200020680169208941EA004021680861204621
:1051300004F057FE05465DB92068006C20F480201D
:10514000216808642068006CA1690843216808642C
:1051500000BFFF202168486200E000250DB9012052
:1051600060772846ACE70000BFFF8FFF1FB50446FD
:105170000020009001900290039009492068884225
:105180000CD102200090074803906846FFF714FBFB
:1051900008B1FDF728FA0120034908601FBD00008F
:1051A0000028004000031E003C0E474270B5044634
:1051B00000250B482168C860FEF7A8FC054607E0FB
:1051C000FEF7A4FC401BB0F57A7F01D9032070BD27
:1051D0002068C06800F020000028F1D00020F6E729
:1051E0005F7F010010B504460CB9012010BD606A54
:1051F00038B96068B0F5827F00D105E00021E16137
:1052000002E00021216161610021A16294F8510056
:1052100028B9002084F85000204600F047F802200A
:1052200084F851002068006820F040002168086080
:10523000A08800F48270218901F404410843A18907
:1052400001F400610843217C01F002010843217D43
:1052500001F001010843218B01F400710843217F13
:1052600001F0380108432021095D01F08001084365
:10527000218D01F400510843216808600421A069D0
:1052800001EA104094F8241001F01001084321684D
:1052900048602068C06920F400602168C86100206F
:1052A0006065012084F8510000209FE710B586B0AA
:1052B0000446142101A8FBF71BFF4B4920688842D4
:1052C0007ED100BF002000904848006840F4805024
:1052D000464908600846006800F48050009000BF0E
:1052E00000BF00BF0020009040481438006840F024
:1052F00002003E49143908600846006800F00200C8
:10530000009000BF00BF00BF00200090084600686A
:1053100040F0010008600846006800F001000090BD
:1053200000BF00BF182001900220029001200390CE
:10533000032004900520059001A92D48FEF7E6FA08
:10534000802001900220029001200390032004900D
:105350000520059001A92748FEF7D8FA26482749D5
:1053600008604FF0C0604860002124488160C1603F
:105370004FF480610161002141618161C1614FF49D
:105380004031016200214162FEF7DCF908B1FDF70E
:105390002AF900BF1948E064846300BF164848300A
:1053A000174908604FF0C060486040211448816090
:1053B0000021C1604FF4806101610021416100E082
:1053C00010E08161C1614FF400310162002141624E
:1053D000FEF7B8F908B1FDF706F900BF0848A06468
:1053E000846300BF06B010BD003001404438024065
:1053F000000402400000024010640240B80A00208D
:10540000180B00202DE9FE4F04460F4690461D461E
:105410000C9E01200190FEF779FB814694F851B073
:1054200060680290AA46BBF1010F0BD00298B0F55C
:10543000827F04D1A06810B9BBF1040F02D0022012
:10544000BDE8FE8F1FB1B8F1000F00D00DB90120EB
:10545000F6E700BF94F85000012801D10220EFE7E1
:10546000012084F8500000BF94F85100042802D0B5
:10547000052084F8510000206065C4F83880E58775
:10548000A5872763E586A586206460642068006898
:1054900000F04000402805D02068006840F040003F
:1054A00021680860E068B0F5006F52D1606810B103
:1054B000BAF1010F09D1206B00882168C860206B08
:1054C000801C2063E08E401EE0863BE02068806800
:1054D00000F00200022810D1E08E70B1019801287E
:1054E0000BD1206B00882168C860206B801C206372
:1054F000E08E401EE086002001902068806800F069
:10550000010068B1E08F58B12068C068A16B0880C5
:10551000A06B801CA063E08F401EE08701200190FB
:10552000FEF7F4FAA0EB0900B0420BD3701C48B1AF
:10553000012084F8510000BF002084F8500000BF13
:1055400003207DE7E08E0028C0D1E08F0028BDD188
:1055500052E0606810B1BAF1010F09D1206B0078F8
:1055600021680873206B401C2063E08E401EE0869B
:105570003CE02068806800F00200022810D1E08E34
:1055800070B1019801280BD1206B00782168087355
:10559000206B401C2063E08E401EE08600200190BE
:1055A0002068806800F0010068B1E08F58B1206881
:1055B000C068A16B0870A06B401CA063E08F401E08
:1055C000E08701200190FEF7A1FAA0EB0900B042AC
:1055D00001D3701C00B94EB9012084F8510000BFFE
:1055E000002084F8500000BF032029E7E08E002847
:1055F000BFD1E08F0028BCD14A463146204604F096
:105600008FFC40B12020606500BF002084F850006E
:1056100000BF012014E7A06850B900BF002000902F
:105620002068C068009020688068009000BF00BFBC
:10563000012084F8510000BF002084F8500000BF12
:10564000606D08B10120FBE60020F9E67047704765
:1056500010B504460CB9012010BD94F83D0028B9DE
:10566000002084F83C00204600F026F8022084F850
:105670003D00211D206804F0F5FD012084F846005E
:1056800000BF84F83E0001213F2001554020015514
:105690004120015500BF00BF012084F84200432093
:1056A0000155442001554520015500BF012084F8D3
:1056B0003D000020D0E7000008B50A4A0168914289
:1056C0000FD100BF002100910749096841F4003162
:1056D000054A11601146096801F40031009100BFCC
:1056E00000BF08BD0044014044380240014691F823
:1056F0003D00012801D001207047022081F83D00C3
:105700000868C06840F001000B68D8601A4B086850
:1057100098421BD00868B0F1804F17D0174B08682B
:10572000984213D0164B086898420FD0154B086862
:1057300098420BD0144B0868984207D0134B086866
:10574000984203D0124B086898420CD108688068D0
:1057500000F00702062A0CD00868006840F001003B
:105760000B68186005E00868006840F001000B68ED
:1057700018600020C0E70000000001400004004065
:1057800000080040000C00400004014000400140BF
:1057900000180040704770B504462068C56820684E
:1057A000066906F00200022819D105F0020002285D
:1057B00015D1401F21680861012020772068806989
:1057C00000F0030018B12046FFF7E4FF05E0204693
:1057D00000F0CAF8204600F07EF90020207706F09D
:1057E0000400042819D105F00400042815D1C04391
:1057F00021680861022020772068806900F44070E9
:1058000018B12046FFF7C6FF05E0204600F0ACF8CF
:10581000204600F060F90020207706F008000828F4
:1058200019D105F00800082815D1C0432168086186
:10583000042020772068C06900F0030018B12046DA
:10584000FFF7A8FF05E0204600F08EF8204600F0A4
:1058500042F90020207706F01000102819D105F039
:105860001000102815D1C043216808610820207756
:105870002068C06900F4407018B12046FFF78AFF25
:1058800005E0204600F070F8204600F024F90020E2
:10589000207706F0010048B105F0010030B16FF04B
:1058A000010021680861204600F09CF906F08000A4
:1058B000802809D105F08000802805D1C0432168E7
:1058C00008612046FFF7C2FE06F04000402809D1DB
:1058D00005F04000402805D1C043216808612046FA
:1058E00000F089F906F02000202809D105F02000F9
:1058F000202805D1C043216808612046FFF7A7FE94
:1059000070BD000010B586B00446142101A8FBF755
:10591000EFFB1249206888421DD100BF0020009093
:105920000F48006840F020000D49086008460068F4
:1059300000F02000009000BF00BF40200190022036
:10594000029001200390022004900320059001A9F9
:105950000448FDF7DBFF06B010BD00000044014025
:10596000303802400014024070472DE9F0410446EF
:105970000D461646002700BF94F83C00012802D1CE
:105980000220BDE8F081012084F83C0000BF36B160
:10599000042E1BD0082E31D00C2E5ED145E02946B6
:1059A000206804F0E1FC2068806940F0080021686C
:1059B00088612068806920F004002168886120687F
:1059C0008069296908432168886148E02946206880
:1059D00004F002FD2068806940F40060216888615D
:1059E0002068806920F4806021688861206880696F
:1059F000296940EA01202168886130E02946206851
:105A000004F028FD2068C06940F008002168C861E2
:105A10002068C06920F004002168C8612068C0695E
:105A2000296908432168C86119E02946206804F003
:105A30004DFD2068C06940F400602168C86120689D
:105A4000C06920F480602168C8612068C069296944
:105A500040EA01202168C86101E0012700BF00BFC2
:105A600000BF002084F83C0000BF384689E710B52D
:105A700004460CB9012010BD94F83D0028B900205F
:105A800084F83C00204600F025F8022084F83D0010
:105A9000211D206804F0E6FB012084F8460000BFC9
:105AA00084F83E0001213F2001554020015541204E
:105AB000015500BF00BF012084F84200432001557A
:105AC000442001554520015500BF012084F83D00C8
:105AD0000020D0E77047704770B504460D4615B9F1
